{
  "contractName": "FundingDAO",
  "abi": [
    {
      "anonymous": false,
      "inputs": [
        {
          "indexed": true,
          "internalType": "address",
          "name": "fromAddress",
          "type": "address"
        },
        {
          "indexed": false,
          "internalType": "uint256",
          "name": "amount",
          "type": "uint256"
        }
      ],
      "name": "NewMember",
      "type": "event"
    },
    {
      "anonymous": false,
      "inputs": [
        {
          "indexed": true,
          "internalType": "address",
          "name": "proposer",
          "type": "address"
        },
        {
          "indexed": false,
          "internalType": "uint256",
          "name": "amount",
          "type": "uint256"
        }
      ],
      "name": "NewProposal",
      "type": "event"
    },
    {
      "anonymous": false,
      "inputs": [
        {
          "indexed": true,
          "internalType": "address",
          "name": "stakeholder",
          "type": "address"
        },
        {
          "indexed": true,
          "internalType": "address",
          "name": "projectAddress",
          "type": "address"
        },
        {
          "indexed": false,
          "internalType": "uint256",
          "name": "amount",
          "type": "uint256"
        }
      ],
      "name": "Payment",
      "type": "event"
    },
    {
      "anonymous": false,
      "inputs": [
        {
          "indexed": true,
          "internalType": "bytes32",
          "name": "role",
          "type": "bytes32"
        },
        {
          "indexed": true,
          "internalType": "bytes32",
          "name": "previousAdminRole",
          "type": "bytes32"
        },
        {
          "indexed": true,
          "internalType": "bytes32",
          "name": "newAdminRole",
          "type": "bytes32"
        }
      ],
      "name": "RoleAdminChanged",
      "type": "event"
    },
    {
      "anonymous": false,
      "inputs": [
        {
          "indexed": true,
          "internalType": "bytes32",
          "name": "role",
          "type": "bytes32"
        },
        {
          "indexed": true,
          "internalType": "address",
          "name": "account",
          "type": "address"
        },
        {
          "indexed": true,
          "internalType": "address",
          "name": "sender",
          "type": "address"
        }
      ],
      "name": "RoleGranted",
      "type": "event"
    },
    {
      "anonymous": false,
      "inputs": [
        {
          "indexed": true,
          "internalType": "bytes32",
          "name": "role",
          "type": "bytes32"
        },
        {
          "indexed": true,
          "internalType": "address",
          "name": "account",
          "type": "address"
        },
        {
          "indexed": true,
          "internalType": "address",
          "name": "sender",
          "type": "address"
        }
      ],
      "name": "RoleRevoked",
      "type": "event"
    },
    {
      "inputs": [],
      "name": "DEFAULT_ADMIN_ROLE",
      "outputs": [
        {
          "internalType": "bytes32",
          "name": "",
          "type": "bytes32"
        }
      ],
      "stateMutability": "view",
      "type": "function",
      "constant": true
    },
    {
      "inputs": [],
      "name": "MEMBER",
      "outputs": [
        {
          "internalType": "bytes32",
          "name": "",
          "type": "bytes32"
        }
      ],
      "stateMutability": "view",
      "type": "function",
      "constant": true
    },
    {
      "inputs": [],
      "name": "STAKEHOLDER",
      "outputs": [
        {
          "internalType": "bytes32",
          "name": "",
          "type": "bytes32"
        }
      ],
      "stateMutability": "view",
      "type": "function",
      "constant": true
    },
    {
      "inputs": [
        {
          "internalType": "bytes32",
          "name": "role",
          "type": "bytes32"
        }
      ],
      "name": "getRoleAdmin",
      "outputs": [
        {
          "internalType": "bytes32",
          "name": "",
          "type": "bytes32"
        }
      ],
      "stateMutability": "view",
      "type": "function",
      "constant": true
    },
    {
      "inputs": [
        {
          "internalType": "bytes32",
          "name": "role",
          "type": "bytes32"
        },
        {
          "internalType": "address",
          "name": "account",
          "type": "address"
        }
      ],
      "name": "grantRole",
      "outputs": [],
      "stateMutability": "nonpayable",
      "type": "function"
    },
    {
      "inputs": [
        {
          "internalType": "bytes32",
          "name": "role",
          "type": "bytes32"
        },
        {
          "internalType": "address",
          "name": "account",
          "type": "address"
        }
      ],
      "name": "hasRole",
      "outputs": [
        {
          "internalType": "bool",
          "name": "",
          "type": "bool"
        }
      ],
      "stateMutability": "view",
      "type": "function",
      "constant": true
    },
    {
      "inputs": [],
      "name": "proposalsCount",
      "outputs": [
        {
          "internalType": "uint256",
          "name": "",
          "type": "uint256"
        }
      ],
      "stateMutability": "view",
      "type": "function",
      "constant": true
    },
    {
      "inputs": [
        {
          "internalType": "bytes32",
          "name": "role",
          "type": "bytes32"
        },
        {
          "internalType": "address",
          "name": "account",
          "type": "address"
        }
      ],
      "name": "renounceRole",
      "outputs": [],
      "stateMutability": "nonpayable",
      "type": "function"
    },
    {
      "inputs": [
        {
          "internalType": "bytes32",
          "name": "role",
          "type": "bytes32"
        },
        {
          "internalType": "address",
          "name": "account",
          "type": "address"
        }
      ],
      "name": "revokeRole",
      "outputs": [],
      "stateMutability": "nonpayable",
      "type": "function"
    },
    {
      "inputs": [
        {
          "internalType": "bytes4",
          "name": "interfaceId",
          "type": "bytes4"
        }
      ],
      "name": "supportsInterface",
      "outputs": [
        {
          "internalType": "bool",
          "name": "",
          "type": "bool"
        }
      ],
      "stateMutability": "view",
      "type": "function",
      "constant": true
    },
    {
      "inputs": [
        {
          "internalType": "string",
          "name": "title",
          "type": "string"
        },
        {
          "internalType": "string",
          "name": "desc",
          "type": "string"
        },
        {
          "internalType": "address",
          "name": "receiverAddress",
          "type": "address"
        },
        {
          "internalType": "uint256",
          "name": "amount",
          "type": "uint256"
        },
        {
          "internalType": "string",
          "name": "imageId",
          "type": "string"
        }
      ],
      "name": "createProposal",
      "outputs": [],
      "stateMutability": "payable",
      "type": "function",
      "payable": true
    },
    {
      "inputs": [],
      "name": "getAllProposals",
      "outputs": [
        {
          "components": [
            {
              "internalType": "uint256",
              "name": "id",
              "type": "uint256"
            },
            {
              "internalType": "uint256",
              "name": "amount",
              "type": "uint256"
            },
            {
              "internalType": "uint256",
              "name": "livePeriod",
              "type": "uint256"
            },
            {
              "internalType": "uint256",
              "name": "voteInFavor",
              "type": "uint256"
            },
            {
              "internalType": "uint256",
              "name": "voteAgainst",
              "type": "uint256"
            },
            {
              "internalType": "string",
              "name": "title",
              "type": "string"
            },
            {
              "internalType": "string",
              "name": "desc",
              "type": "string"
            },
            {
              "internalType": "bool",
              "name": "isCompleted",
              "type": "bool"
            },
            {
              "internalType": "bool",
              "name": "paid",
              "type": "bool"
            },
            {
              "internalType": "bool",
              "name": "isPaid",
              "type": "bool"
            },
            {
              "internalType": "address payable",
              "name": "receiverAddress",
              "type": "address"
            },
            {
              "internalType": "address",
              "name": "proposer",
              "type": "address"
            },
            {
              "internalType": "uint256",
              "name": "totalFundRaised",
              "type": "uint256"
            },
            {
              "components": [
                {
                  "internalType": "address",
                  "name": "payer",
                  "type": "address"
                },
                {
                  "internalType": "uint256",
                  "name": "amount",
                  "type": "uint256"
                },
                {
                  "internalType": "uint256",
                  "name": "timestamp",
                  "type": "uint256"
                }
              ],
              "internalType": "struct FundingDAO.Funding[]",
              "name": "funders",
              "type": "tuple[]"
            },
            {
              "internalType": "string",
              "name": "imageId",
              "type": "string"
            }
          ],
          "internalType": "struct FundingDAO.Proposal[]",
          "name": "",
          "type": "tuple[]"
        }
      ],
      "stateMutability": "view",
      "type": "function",
      "constant": true
    },
    {
      "inputs": [
        {
          "internalType": "uint256",
          "name": "proposalId",
          "type": "uint256"
        }
      ],
      "name": "getProposal",
      "outputs": [
        {
          "components": [
            {
              "internalType": "uint256",
              "name": "id",
              "type": "uint256"
            },
            {
              "internalType": "uint256",
              "name": "amount",
              "type": "uint256"
            },
            {
              "internalType": "uint256",
              "name": "livePeriod",
              "type": "uint256"
            },
            {
              "internalType": "uint256",
              "name": "voteInFavor",
              "type": "uint256"
            },
            {
              "internalType": "uint256",
              "name": "voteAgainst",
              "type": "uint256"
            },
            {
              "internalType": "string",
              "name": "title",
              "type": "string"
            },
            {
              "internalType": "string",
              "name": "desc",
              "type": "string"
            },
            {
              "internalType": "bool",
              "name": "isCompleted",
              "type": "bool"
            },
            {
              "internalType": "bool",
              "name": "paid",
              "type": "bool"
            },
            {
              "internalType": "bool",
              "name": "isPaid",
              "type": "bool"
            },
            {
              "internalType": "address payable",
              "name": "receiverAddress",
              "type": "address"
            },
            {
              "internalType": "address",
              "name": "proposer",
              "type": "address"
            },
            {
              "internalType": "uint256",
              "name": "totalFundRaised",
              "type": "uint256"
            },
            {
              "components": [
                {
                  "internalType": "address",
                  "name": "payer",
                  "type": "address"
                },
                {
                  "internalType": "uint256",
                  "name": "amount",
                  "type": "uint256"
                },
                {
                  "internalType": "uint256",
                  "name": "timestamp",
                  "type": "uint256"
                }
              ],
              "internalType": "struct FundingDAO.Funding[]",
              "name": "funders",
              "type": "tuple[]"
            },
            {
              "internalType": "string",
              "name": "imageId",
              "type": "string"
            }
          ],
          "internalType": "struct FundingDAO.Proposal",
          "name": "",
          "type": "tuple"
        }
      ],
      "stateMutability": "view",
      "type": "function",
      "constant": true
    },
    {
      "inputs": [],
      "name": "getVotes",
      "outputs": [
        {
          "internalType": "uint256[]",
          "name": "",
          "type": "uint256[]"
        }
      ],
      "stateMutability": "view",
      "type": "function",
      "constant": true
    },
    {
      "inputs": [],
      "name": "getStakeholderBal",
      "outputs": [
        {
          "internalType": "uint256",
          "name": "",
          "type": "uint256"
        }
      ],
      "stateMutability": "view",
      "type": "function",
      "constant": true
    },
    {
      "inputs": [],
      "name": "getMemberBal",
      "outputs": [
        {
          "internalType": "uint256",
          "name": "",
          "type": "uint256"
        }
      ],
      "stateMutability": "view",
      "type": "function",
      "constant": true
    },
    {
      "inputs": [],
      "name": "isStakeholder",
      "outputs": [
        {
          "internalType": "bool",
          "name": "",
          "type": "bool"
        }
      ],
      "stateMutability": "view",
      "type": "function",
      "constant": true
    },
    {
      "inputs": [],
      "name": "isMember",
      "outputs": [
        {
          "internalType": "bool",
          "name": "",
          "type": "bool"
        }
      ],
      "stateMutability": "view",
      "type": "function",
      "constant": true
    },
    {
      "inputs": [
        {
          "internalType": "uint256",
          "name": "proposalId",
          "type": "uint256"
        },
        {
          "internalType": "bool",
          "name": "inFavour",
          "type": "bool"
        }
      ],
      "name": "vote",
      "outputs": [],
      "stateMutability": "nonpayable",
      "type": "function"
    },
    {
      "inputs": [
        {
          "internalType": "uint256",
          "name": "proposalId",
          "type": "uint256"
        },
        {
          "internalType": "uint256",
          "name": "fundAmount",
          "type": "uint256"
        }
      ],
      "name": "provideFunds",
      "outputs": [],
      "stateMutability": "payable",
      "type": "function",
      "payable": true
    },
    {
      "inputs": [
        {
          "internalType": "uint256",
          "name": "proposalId",
          "type": "uint256"
        }
      ],
      "name": "releaseFunding",
      "outputs": [],
      "stateMutability": "payable",
      "type": "function",
      "payable": true
    },
    {
      "inputs": [],
      "name": "createStakeholder",
      "outputs": [],
      "stateMutability": "payable",
      "type": "function",
      "payable": true
    }
  ],
  "bytecode": "0x6080604052600060065534801561001557600080fd5b506001600081905550613a7c8061002d6000396000f3fe6080604052600436106101355760003560e01c806391d14854116100ab578063c7f758a81161006f578063c7f758a8146103ef578063c9d27afe1461042c578063cceb68f514610455578063d02982cf14610480578063d547741f146104ab578063f8d41b96146104d457610135565b806391d1485414610324578063a217fddf14610361578063a8e78b201461038c578063b3bcf752146103a8578063c02146ac146103c457610135565b8063248a9ca3116100fd578063248a9ca3146102235780632f2ff15d1461026057806336568abe146102895780636dd8cdd2146102b25780637ed3a7e7146102dd5780638bc3b92b1461030857610135565b806301ffc9a71461013a5780630a9f46ad146101775780630d2e57ee146101a25780630dc96015146101cd5780631c681a42146101f8575b600080fd5b34801561014657600080fd5b50610161600480360381019061015c919061250a565b6104de565b60405161016e9190612552565b60405180910390f35b34801561018357600080fd5b5061018c610558565b6040516101999190612586565b60405180910390f35b3480156101ae57600080fd5b506101b761055e565b6040516101c49190612586565b60405180910390f35b3480156101d957600080fd5b506101e261062c565b6040516101ef919061265f565b60405180910390f35b34801561020457600080fd5b5061020d610748565b60405161021a919061269a565b60405180910390f35b34801561022f57600080fd5b5061024a600480360381019061024591906126e1565b61076c565b604051610257919061269a565b60405180910390f35b34801561026c57600080fd5b506102876004803603810190610282919061276c565b61078c565b005b34801561029557600080fd5b506102b060048036038101906102ab919061276c565b6107b5565b005b3480156102be57600080fd5b506102c7610838565b6040516102d49190612586565b60405180910390f35b3480156102e957600080fd5b506102f2610906565b6040516102ff919061269a565b60405180910390f35b610322600480360381019061031d91906127d8565b61092a565b005b34801561033057600080fd5b5061034b6004803603810190610346919061276c565b610bb6565b6040516103589190612552565b60405180910390f35b34801561036d57600080fd5b50610376610c21565b604051610383919061269a565b60405180910390f35b6103a660048036038101906103a1919061287d565b610c28565b005b6103c260048036038101906103bd9190612959565b610eb2565b005b3480156103d057600080fd5b506103d9611047565b6040516103e69190612552565b60405180910390f35b3480156103fb57600080fd5b5061041660048036038101906104119190612959565b611090565b6040516104239190612c9e565b60405180910390f35b34801561043857600080fd5b50610453600480360381019061044e9190612cec565b611476565b005b34801561046157600080fd5b5061046a61173f565b6040516104779190612f46565b60405180910390f35b34801561048c57600080fd5b50610495611bb8565b6040516104a29190612552565b60405180910390f35b3480156104b757600080fd5b506104d260048036038101906104cd919061276c565b611c01565b005b6104dc611c2a565b005b60007f7965db0b000000000000000000000000000000000000000000000000000000007bffffffffffffffffffffffffffffffffffffffffffffffffffffffff1916827bffffffffffffffffffffffffffffffffffffffffffffffffffffffff19161480610551575061055082611ee5565b5b9050919050565b60065481565b6000604051806060016040528060248152602001613a00602491396105a37fffa60083152bd11704a80cc8c7a409dad8aa74288b454a3ba0e94c0abc7cf16833610bb6565b81906105e5576040517f08c379a00000000000000000000000000000000000000000000000000000000081526004016105dc9190612fb2565b60405180910390fd5b50600460003373ffffffffffffffffffffffffffffffffffffffff1673ffffffffffffffffffffffffffffffffffffffff1681526020019081526020016000205491505090565b606060405180606001604052806028815260200161395c602891396106717ff4bb84e1768dd286358a736d195a0b228621173f655a73b89bf8b191ed0ba07d33610bb6565b81906106b3576040517f08c379a00000000000000000000000000000000000000000000000000000000081526004016106aa9190612fb2565b60405180910390fd5b50600560003373ffffffffffffffffffffffffffffffffffffffff1673ffffffffffffffffffffffffffffffffffffffff16815260200190815260200160002080548060200260200160405190810160405280929190818152602001828054801561073d57602002820191906000526020600020905b815481526020019060010190808311610729575b505050505091505090565b7fffa60083152bd11704a80cc8c7a409dad8aa74288b454a3ba0e94c0abc7cf16881565b600060016000838152602001908152602001600020600101549050919050565b6107958261076c565b6107a6816107a1611f4f565b611f57565b6107b08383611ff4565b505050565b6107bd611f4f565b73ffffffffffffffffffffffffffffffffffffffff168173ffffffffffffffffffffffffffffffffffffffff161461082a576040517f08c379a000000000000000000000000000000000000000000000000000000000815260040161082190613046565b60405180910390fd5b61083482826120d4565b5050565b600060405180606001604052806028815260200161395c6028913961087d7ff4bb84e1768dd286358a736d195a0b228621173f655a73b89bf8b191ed0ba07d33610bb6565b81906108bf576040517f08c379a00000000000000000000000000000000000000000000000000000000081526004016108b69190612fb2565b60405180910390fd5b50600360003373ffffffffffffffffffffffffffffffffffffffff1673ffffffffffffffffffffffffffffffffffffffff1681526020019081526020016000205491505090565b7ff4bb84e1768dd286358a736d195a0b228621173f655a73b89bf8b191ed0ba07d81565b604051806060016040528060238152602001613a246023913961096d7ff4bb84e1768dd286358a736d195a0b228621173f655a73b89bf8b191ed0ba07d33610bb6565b81906109af576040517f08c379a00000000000000000000000000000000000000000000000000000000081526004016109a69190612fb2565b60405180910390fd5b5060006002600085815260200190815260200160002090508060070160029054906101000a900460ff1615610a19576040517f08c379a0000000000000000000000000000000000000000000000000000000008152600401610a10906130b2565b60405180910390fd5b8060040154816003015411610a63576040517f08c379a0000000000000000000000000000000000000000000000000000000008152600401610a5a90613144565b60405180910390fd5b8060010154816009015410610aad576040517f08c379a0000000000000000000000000000000000000000000000000000000008152600401610aa4906130b2565b60405180910390fd5b82816009016000828254610ac19190613193565b9250508190555080600a0160405180606001604052803373ffffffffffffffffffffffffffffffffffffffff16815260200185815260200142815250908060018154018082558091505060019003906000526020600020906003020160009091909190915060008201518160000160006101000a81548173ffffffffffffffffffffffffffffffffffffffff021916908373ffffffffffffffffffffffffffffffffffffffff160217905550602082015181600101556040820151816002015550508060010154816009015410610bb05760018160070160006101000a81548160ff0219169083151502179055505b50505050565b60006001600084815260200190815260200160002060000160008373ffffffffffffffffffffffffffffffffffffffff1673ffffffffffffffffffffffffffffffffffffffff16815260200190815260200160002060009054906101000a900460ff16905092915050565b6000801b81565b60405180606001604052806025815260200161398460259139610c6b7fffa60083152bd11704a80cc8c7a409dad8aa74288b454a3ba0e94c0abc7cf16833610bb6565b8190610cad576040517f08c379a0000000000000000000000000000000000000000000000000000000008152600401610ca49190612fb2565b60405180910390fd5b50674563918244f400003414610cf8576040517f08c379a0000000000000000000000000000000000000000000000000000000008152600401610cef90613239565b60405180910390fd5b6000600654905060006002600083815260200190815260200160002090508181600001819055508888826006019182610d3292919061349f565b508a8a826005019182610d4692919061349f565b50868160070160036101000a81548173ffffffffffffffffffffffffffffffffffffffff021916908373ffffffffffffffffffffffffffffffffffffffff160217905550338160080160006101000a81548173ffffffffffffffffffffffffffffffffffffffff021916908373ffffffffffffffffffffffffffffffffffffffff16021790555085816001018190555060b463ffffffff1642610de99190613193565b816002018190555060008160070160026101000a81548160ff02191690831515021790555060008160070160006101000a81548160ff021916908315150217905550848482600b019182610e3e92919061349f565b5060066000815480929190610e529061356f565b91905055503373ffffffffffffffffffffffffffffffffffffffff167f8dfa4a39b973cacc42c5d14d9461d66fd1fda5ea696f7d2a3c44fd9d7f11d04f87604051610e9d9190612586565b60405180910390a25050505050505050505050565b6040518060600160405280602e81526020016139a9602e9139610ef57ff4bb84e1768dd286358a736d195a0b228621173f655a73b89bf8b191ed0ba07d33610bb6565b8190610f37576040517f08c379a0000000000000000000000000000000000000000000000000000000008152600401610f2e9190612fb2565b60405180910390fd5b5060006002600084815260200190815260200160002090508060010154816009015411610f99576040517f08c379a0000000000000000000000000000000000000000000000000000000008152600401610f9090613629565b60405180910390fd5b8060070160039054906101000a900473ffffffffffffffffffffffffffffffffffffffff1673ffffffffffffffffffffffffffffffffffffffff166108fc82600901549081150290604051600060405180830381858888f19350505050158015611007573d6000803e3d6000fd5b5060018160070160026101000a81548160ff02191690831515021790555060018160070160006101000a81548160ff021916908315150217905550505050565b600080600360003373ffffffffffffffffffffffffffffffffffffffff1673ffffffffffffffffffffffffffffffffffffffff1681526020019081526020016000205411905090565b611098612400565b60026000838152602001908152602001600020604051806101e001604052908160008201548152602001600182015481526020016002820154815260200160038201548152602001600482015481526020016005820180546110f9906132c2565b80601f0160208091040260200160405190810160405280929190818152602001828054611125906132c2565b80156111725780601f1061114757610100808354040283529160200191611172565b820191906000526020600020905b81548152906001019060200180831161115557829003601f168201915b5050505050815260200160068201805461118b906132c2565b80601f01602080910402602001604051908101604052809291908181526020018280546111b7906132c2565b80156112045780601f106111d957610100808354040283529160200191611204565b820191906000526020600020905b8154815290600101906020018083116111e757829003601f168201915b505050505081526020016007820160009054906101000a900460ff161515151581526020016007820160019054906101000a900460ff161515151581526020016007820160029054906101000a900460ff161515151581526020016007820160039054906101000a900473ffffffffffffffffffffffffffffffffffffffff1673ffffffffffffffffffffffffffffffffffffffff1673ffffffffffffffffffffffffffffffffffffffff1681526020016008820160009054906101000a900473ffffffffffffffffffffffffffffffffffffffff1673ffffffffffffffffffffffffffffffffffffffff1673ffffffffffffffffffffffffffffffffffffffff16815260200160098201548152602001600a8201805480602002602001604051908101604052809291908181526020016000905b828210156113d557838290600052602060002090600302016040518060600160405290816000820160009054906101000a900473ffffffffffffffffffffffffffffffffffffffff1673ffffffffffffffffffffffffffffffffffffffff1673ffffffffffffffffffffffffffffffffffffffff1681526020016001820154815260200160028201548152505081526020019060010190611339565b505050508152602001600b820180546113ed906132c2565b80601f0160208091040260200160405190810160405280929190818152602001828054611419906132c2565b80156114665780601f1061143b57610100808354040283529160200191611466565b820191906000526020600020905b81548152906001019060200180831161144957829003601f168201915b5050505050815250509050919050565b6040518060600160405280602981526020016139d7602991396114b97ff4bb84e1768dd286358a736d195a0b228621173f655a73b89bf8b191ed0ba07d33610bb6565b81906114fb576040517f08c379a00000000000000000000000000000000000000000000000000000000081526004016114f29190612fb2565b60405180910390fd5b5060006002600085815260200190815260200160002090508060070160009054906101000a900460ff1680611534575042816002015411155b156115915760018160070160006101000a81548160ff0219169083151502179055506040517f08c379a0000000000000000000000000000000000000000000000000000000008152600401611588906136bb565b60405180910390fd5b60005b600560003373ffffffffffffffffffffffffffffffffffffffff1673ffffffffffffffffffffffffffffffffffffffff1681526020019081526020016000208054905081101561169257600560003373ffffffffffffffffffffffffffffffffffffffff1673ffffffffffffffffffffffffffffffffffffffff168152602001908152602001600020818154811061162f5761162e6136db565b5b906000526020600020015482600001540361167f576040517f08c379a000000000000000000000000000000000000000000000000000000000815260040161167690613756565b60405180910390fd5b808061168a9061356f565b915050611594565b5082156116b8578060030160008154809291906116ae9061356f565b91905055506116d3565b8060040160008154809291906116cd9061356f565b91905055505b600560003373ffffffffffffffffffffffffffffffffffffffff1673ffffffffffffffffffffffffffffffffffffffff16815260200190815260200160002084908060018154018082558091505060019003906000526020600020016000909190919091505550505050565b6060600060065467ffffffffffffffff81111561175f5761175e613264565b5b60405190808252806020026020018201604052801561179857816020015b611785612400565b81526020019060019003908161177d5790505b50905060005b600654811015611bb05760026000828152602001908152602001600020604051806101e00160405290816000820154815260200160018201548152602001600282015481526020016003820154815260200160048201548152602001600582018054611809906132c2565b80601f0160208091040260200160405190810160405280929190818152602001828054611835906132c2565b80156118825780601f1061185757610100808354040283529160200191611882565b820191906000526020600020905b81548152906001019060200180831161186557829003601f168201915b5050505050815260200160068201805461189b906132c2565b80601f01602080910402602001604051908101604052809291908181526020018280546118c7906132c2565b80156119145780601f106118e957610100808354040283529160200191611914565b820191906000526020600020905b8154815290600101906020018083116118f757829003601f168201915b505050505081526020016007820160009054906101000a900460ff161515151581526020016007820160019054906101000a900460ff161515151581526020016007820160029054906101000a900460ff161515151581526020016007820160039054906101000a900473ffffffffffffffffffffffffffffffffffffffff1673ffffffffffffffffffffffffffffffffffffffff1673ffffffffffffffffffffffffffffffffffffffff1681526020016008820160009054906101000a900473ffffffffffffffffffffffffffffffffffffffff1673ffffffffffffffffffffffffffffffffffffffff1673ffffffffffffffffffffffffffffffffffffffff16815260200160098201548152602001600a8201805480602002602001604051908101604052809291908181526020016000905b82821015611ae557838290600052602060002090600302016040518060600160405290816000820160009054906101000a900473ffffffffffffffffffffffffffffffffffffffff1673ffffffffffffffffffffffffffffffffffffffff1673ffffffffffffffffffffffffffffffffffffffff1681526020016001820154815260200160028201548152505081526020019060010190611a49565b505050508152602001600b82018054611afd906132c2565b80601f0160208091040260200160405190810160405280929190818152602001828054611b29906132c2565b8015611b765780601f10611b4b57610100808354040283529160200191611b76565b820191906000526020600020905b815481529060010190602001808311611b5957829003601f168201915b505050505081525050828281518110611b9257611b916136db565b5b60200260200101819052508080611ba89061356f565b91505061179e565b508091505090565b600080600460003373ffffffffffffffffffffffffffffffffffffffff1673ffffffffffffffffffffffffffffffffffffffff1681526020019081526020016000205411905090565b611c0a8261076c565b611c1b81611c16611f4f565b611f57565b611c2583836120d4565b505050565b6000349050611c597ff4bb84e1768dd286358a736d195a0b228621173f655a73b89bf8b191ed0ba07d33610bb6565b611e3557600081600460003373ffffffffffffffffffffffffffffffffffffffff1673ffffffffffffffffffffffffffffffffffffffff16815260200190815260200160002054611caa9190613193565b9050671bc16d674ec800008110611dae57611ce57ff4bb84e1768dd286358a736d195a0b228621173f655a73b89bf8b191ed0ba07d336121b6565b611d0f7fffa60083152bd11704a80cc8c7a409dad8aa74288b454a3ba0e94c0abc7cf168336121b6565b80600360003373ffffffffffffffffffffffffffffffffffffffff1673ffffffffffffffffffffffffffffffffffffffff1681526020019081526020016000208190555081600460003373ffffffffffffffffffffffffffffffffffffffff1673ffffffffffffffffffffffffffffffffffffffff1681526020019081526020016000206000828254611da29190613193565b92505081905550611e2f565b611dd87fffa60083152bd11704a80cc8c7a409dad8aa74288b454a3ba0e94c0abc7cf168336121b6565b81600460003373ffffffffffffffffffffffffffffffffffffffff1673ffffffffffffffffffffffffffffffffffffffff1681526020019081526020016000206000828254611e279190613193565b925050819055505b50611ee2565b80600460003373ffffffffffffffffffffffffffffffffffffffff1673ffffffffffffffffffffffffffffffffffffffff1681526020019081526020016000206000828254611e849190613193565b9250508190555080600360003373ffffffffffffffffffffffffffffffffffffffff1673ffffffffffffffffffffffffffffffffffffffff1681526020019081526020016000206000828254611eda9190613193565b925050819055505b50565b60007f01ffc9a7000000000000000000000000000000000000000000000000000000007bffffffffffffffffffffffffffffffffffffffffffffffffffffffff1916827bffffffffffffffffffffffffffffffffffffffffffffffffffffffff1916149050919050565b600033905090565b611f618282610bb6565b611ff057611f868173ffffffffffffffffffffffffffffffffffffffff1660146121c4565b611f948360001c60206121c4565b604051602001611fa592919061384a565b6040516020818303038152906040526040517f08c379a0000000000000000000000000000000000000000000000000000000008152600401611fe79190612fb2565b60405180910390fd5b5050565b611ffe8282610bb6565b6120d057600180600084815260200190815260200160002060000160008373ffffffffffffffffffffffffffffffffffffffff1673ffffffffffffffffffffffffffffffffffffffff16815260200190815260200160002060006101000a81548160ff021916908315150217905550612075611f4f565b73ffffffffffffffffffffffffffffffffffffffff168173ffffffffffffffffffffffffffffffffffffffff16837f2f8788117e7eff1d82e926ec794901d17c78024a50270940304540a733656f0d60405160405180910390a45b5050565b6120de8282610bb6565b156121b25760006001600084815260200190815260200160002060000160008373ffffffffffffffffffffffffffffffffffffffff1673ffffffffffffffffffffffffffffffffffffffff16815260200190815260200160002060006101000a81548160ff021916908315150217905550612157611f4f565b73ffffffffffffffffffffffffffffffffffffffff168173ffffffffffffffffffffffffffffffffffffffff16837ff6391f5c32d9c69d2a47ea670b442974b53935d1edc7fd64eb21e047a839171b60405160405180910390a45b5050565b6121c08282611ff4565b5050565b6060600060028360026121d79190613884565b6121e19190613193565b67ffffffffffffffff8111156121fa576121f9613264565b5b6040519080825280601f01601f19166020018201604052801561222c5781602001600182028036833780820191505090505b5090507f300000000000000000000000000000000000000000000000000000000000000081600081518110612264576122636136db565b5b60200101907effffffffffffffffffffffffffffffffffffffffffffffffffffffffffffff1916908160001a9053507f7800000000000000000000000000000000000000000000000000000000000000816001815181106122c8576122c76136db565b5b60200101907effffffffffffffffffffffffffffffffffffffffffffffffffffffffffffff1916908160001a905350600060018460026123089190613884565b6123129190613193565b90505b60018111156123b2577f3031323334353637383961626364656600000000000000000000000000000000600f861660108110612354576123536136db565b5b1a60f81b82828151811061236b5761236a6136db565b5b60200101907effffffffffffffffffffffffffffffffffffffffffffffffffffffffffffff1916908160001a905350600485901c9450806123ab906138c6565b9050612315565b50600084146123f6576040517f08c379a00000000000000000000000000000000000000000000000000000000081526004016123ed9061393b565b60405180910390fd5b8091505092915050565b604051806101e0016040528060008152602001600081526020016000815260200160008152602001600081526020016060815260200160608152602001600015158152602001600015158152602001600015158152602001600073ffffffffffffffffffffffffffffffffffffffff168152602001600073ffffffffffffffffffffffffffffffffffffffff1681526020016000815260200160608152602001606081525090565b600080fd5b600080fd5b60007fffffffff0000000000000000000000000000000000000000000000000000000082169050919050565b6124e7816124b2565b81146124f257600080fd5b50565b600081359050612504816124de565b92915050565b6000602082840312156125205761251f6124a8565b5b600061252e848285016124f5565b91505092915050565b60008115159050919050565b61254c81612537565b82525050565b60006020820190506125676000830184612543565b92915050565b6000819050919050565b6125808161256d565b82525050565b600060208201905061259b6000830184612577565b92915050565b600081519050919050565b600082825260208201905092915050565b6000819050602082019050919050565b6125d68161256d565b82525050565b60006125e883836125cd565b60208301905092915050565b6000602082019050919050565b600061260c826125a1565b61261681856125ac565b9350612621836125bd565b8060005b8381101561265257815161263988826125dc565b9750612644836125f4565b925050600181019050612625565b5085935050505092915050565b600060208201905081810360008301526126798184612601565b905092915050565b6000819050919050565b61269481612681565b82525050565b60006020820190506126af600083018461268b565b92915050565b6126be81612681565b81146126c957600080fd5b50565b6000813590506126db816126b5565b92915050565b6000602082840312156126f7576126f66124a8565b5b6000612705848285016126cc565b91505092915050565b600073ffffffffffffffffffffffffffffffffffffffff82169050919050565b60006127398261270e565b9050919050565b6127498161272e565b811461275457600080fd5b50565b60008135905061276681612740565b92915050565b60008060408385031215612783576127826124a8565b5b6000612791858286016126cc565b92505060206127a285828601612757565b9150509250929050565b6127b58161256d565b81146127c057600080fd5b50565b6000813590506127d2816127ac565b92915050565b600080604083850312156127ef576127ee6124a8565b5b60006127fd858286016127c3565b925050602061280e858286016127c3565b9150509250929050565b600080fd5b600080fd5b600080fd5b60008083601f84011261283d5761283c612818565b5b8235905067ffffffffffffffff81111561285a5761285961281d565b5b60208301915083600182028301111561287657612875612822565b5b9250929050565b60008060008060008060008060a0898b03121561289d5761289c6124a8565b5b600089013567ffffffffffffffff8111156128bb576128ba6124ad565b5b6128c78b828c01612827565b9850985050602089013567ffffffffffffffff8111156128ea576128e96124ad565b5b6128f68b828c01612827565b965096505060406129098b828c01612757565b945050606061291a8b828c016127c3565b935050608089013567ffffffffffffffff81111561293b5761293a6124ad565b5b6129478b828c01612827565b92509250509295985092959890939650565b60006020828403121561296f5761296e6124a8565b5b600061297d848285016127c3565b91505092915050565b600081519050919050565b600082825260208201905092915050565b60005b838110156129c05780820151818401526020810190506129a5565b60008484015250505050565b6000601f19601f8301169050919050565b60006129e882612986565b6129f28185612991565b9350612a028185602086016129a2565b612a0b816129cc565b840191505092915050565b612a1f81612537565b82525050565b6000612a308261270e565b9050919050565b612a4081612a25565b82525050565b612a4f8161272e565b82525050565b600081519050919050565b600082825260208201905092915050565b6000819050602082019050919050565b606082016000820151612a976000850182612a46565b506020820151612aaa60208501826125cd565b506040820151612abd60408501826125cd565b50505050565b6000612acf8383612a81565b60608301905092915050565b6000602082019050919050565b6000612af382612a55565b612afd8185612a60565b9350612b0883612a71565b8060005b83811015612b39578151612b208882612ac3565b9750612b2b83612adb565b925050600181019050612b0c565b5085935050505092915050565b60006101e083016000830151612b5f60008601826125cd565b506020830151612b7260208601826125cd565b506040830151612b8560408601826125cd565b506060830151612b9860608601826125cd565b506080830151612bab60808601826125cd565b5060a083015184820360a0860152612bc382826129dd565b91505060c083015184820360c0860152612bdd82826129dd565b91505060e0830151612bf260e0860182612a16565b50610100830151612c07610100860182612a16565b50610120830151612c1c610120860182612a16565b50610140830151612c31610140860182612a37565b50610160830151612c46610160860182612a46565b50610180830151612c5b6101808601826125cd565b506101a08301518482036101a0860152612c758282612ae8565b9150506101c08301518482036101c0860152612c9182826129dd565b9150508091505092915050565b60006020820190508181036000830152612cb88184612b46565b905092915050565b612cc981612537565b8114612cd457600080fd5b50565b600081359050612ce681612cc0565b92915050565b60008060408385031215612d0357612d026124a8565b5b6000612d11858286016127c3565b9250506020612d2285828601612cd7565b9150509250929050565b600081519050919050565b600082825260208201905092915050565b6000819050602082019050919050565b60006101e083016000830151612d7160008601826125cd565b506020830151612d8460208601826125cd565b506040830151612d9760408601826125cd565b506060830151612daa60608601826125cd565b506080830151612dbd60808601826125cd565b5060a083015184820360a0860152612dd582826129dd565b91505060c083015184820360c0860152612def82826129dd565b91505060e0830151612e0460e0860182612a16565b50610100830151612e19610100860182612a16565b50610120830151612e2e610120860182612a16565b50610140830151612e43610140860182612a37565b50610160830151612e58610160860182612a46565b50610180830151612e6d6101808601826125cd565b506101a08301518482036101a0860152612e878282612ae8565b9150506101c08301518482036101c0860152612ea382826129dd565b9150508091505092915050565b6000612ebc8383612d58565b905092915050565b6000602082019050919050565b6000612edc82612d2c565b612ee68185612d37565b935083602082028501612ef885612d48565b8060005b85811015612f345784840389528151612f158582612eb0565b9450612f2083612ec4565b925060208a01995050600181019050612efc565b50829750879550505050505092915050565b60006020820190508181036000830152612f608184612ed1565b905092915050565b600082825260208201905092915050565b6000612f8482612986565b612f8e8185612f68565b9350612f9e8185602086016129a2565b612fa7816129cc565b840191505092915050565b60006020820190508181036000830152612fcc8184612f79565b905092915050565b7f416363657373436f6e74726f6c3a2063616e206f6e6c792072656e6f756e636560008201527f20726f6c657320666f722073656c660000000000000000000000000000000000602082015250565b6000613030602f83612f68565b915061303b82612fd4565b604082019050919050565b6000602082019050818103600083015261305f81613023565b9050919050565b7f52657175697265642066756e6473206172652070726f76696465642e00000000600082015250565b600061309c601c83612f68565b91506130a782613066565b602082019050919050565b600060208201905081810360008301526130cb8161308f565b9050919050565b7f546869732070726f706f73616c206973206e6f742073656c656374656420666f60008201527f722066756e64696e672e00000000000000000000000000000000000000000000602082015250565b600061312e602a83612f68565b9150613139826130d2565b604082019050919050565b6000602082019050818103600083015261315d81613121565b9050919050565b7f4e487b7100000000000000000000000000000000000000000000000000000000600052601160045260246000fd5b600061319e8261256d565b91506131a98361256d565b92508282019050808211156131c1576131c0613164565b5b92915050565b7f596f75206e65656420746f206164642035204d4154494320746f20637265617460008201527f6520612070726f706f73616c0000000000000000000000000000000000000000602082015250565b6000613223602c83612f68565b915061322e826131c7565b604082019050919050565b6000602082019050818103600083015261325281613216565b9050919050565b600082905092915050565b7f4e487b7100000000000000000000000000000000000000000000000000000000600052604160045260246000fd5b7f4e487b7100000000000000000000000000000000000000000000000000000000600052602260045260246000fd5b600060028204905060018216806132da57607f821691505b6020821081036132ed576132ec613293565b5b50919050565b60008190508160005260206000209050919050565b60006020601f8301049050919050565b600082821b905092915050565b6000600883026133557fffffffffffffffffffffffffffffffffffffffffffffffffffffffffffffffff82613318565b61335f8683613318565b95508019841693508086168417925050509392505050565b6000819050919050565b600061339c6133976133928461256d565b613377565b61256d565b9050919050565b6000819050919050565b6133b683613381565b6133ca6133c2826133a3565b848454613325565b825550505050565b600090565b6133df6133d2565b6133ea8184846133ad565b505050565b5b8181101561340e576134036000826133d7565b6001810190506133f0565b5050565b601f82111561345357613424816132f3565b61342d84613308565b8101602085101561343c578190505b61345061344885613308565b8301826133ef565b50505b505050565b600082821c905092915050565b600061347660001984600802613458565b1980831691505092915050565b600061348f8383613465565b9150826002028217905092915050565b6134a98383613259565b67ffffffffffffffff8111156134c2576134c1613264565b5b6134cc82546132c2565b6134d7828285613412565b6000601f83116001811461350657600084156134f4578287013590505b6134fe8582613483565b865550613566565b601f198416613514866132f3565b60005b8281101561353c57848901358255600182019150602085019450602081019050613517565b868310156135595784890135613555601f891682613465565b8355505b6001600288020188555050505b50505050505050565b600061357a8261256d565b91507fffffffffffffffffffffffffffffffffffffffffffffffffffffffffffffffff82036135ac576135ab613164565b5b600182019050919050565b7f52657175697265642066756e647320617265206e6f74206d65742e20506c656160008201527f73652070726f76696465722066756e64732e0000000000000000000000000000602082015250565b6000613613603283612f68565b915061361e826135b7565b604082019050919050565b6000602082019050818103600083015261364281613606565b9050919050565b7f54696d6520706572696f64206f6620746869732070726f706f73616c2069732060008201527f656e6465642e0000000000000000000000000000000000000000000000000000602082015250565b60006136a5602683612f68565b91506136b082613649565b604082019050919050565b600060208201905081810360008301526136d481613698565b9050919050565b7f4e487b7100000000000000000000000000000000000000000000000000000000600052603260045260246000fd5b7f596f752063616e206f6e6c7920766f7465206f6e63652e000000000000000000600082015250565b6000613740601783612f68565b915061374b8261370a565b602082019050919050565b6000602082019050818103600083015261376f81613733565b9050919050565b600081905092915050565b7f416363657373436f6e74726f6c3a206163636f756e7420000000000000000000600082015250565b60006137b7601783613776565b91506137c282613781565b601782019050919050565b60006137d882612986565b6137e28185613776565b93506137f28185602086016129a2565b80840191505092915050565b7f206973206d697373696e6720726f6c6520000000000000000000000000000000600082015250565b6000613834601183613776565b915061383f826137fe565b601182019050919050565b6000613855826137aa565b915061386182856137cd565b915061386c82613827565b915061387882846137cd565b91508190509392505050565b600061388f8261256d565b915061389a8361256d565b92508282026138a88161256d565b915082820484148315176138bf576138be613164565b5b5092915050565b60006138d18261256d565b9150600082036138e4576138e3613164565b5b600182039050919050565b7f537472696e67733a20686578206c656e67746820696e73756666696369656e74600082015250565b6000613925602083612f68565b9150613930826138ef565b602082019050919050565b6000602082019050818103600083015261395481613918565b905091905056fe4f6e6c79205374616b65686f6c6465722063616e2063616c6c20746869732066756e6374696f6e2e4f6e6c79206d656d626572732063616e20637265617465206e65772070726f706f73616c2e4f6e6c79205374616b65686f6c646572732061726520616c6c6f77656420746f2072656c656173652066756e64734f6e6c79205374616b65686f6c646572732063616e20766f7465206f6e20612070726f706f73616c2e4f6e6c79204d656d626572732063616e2063616c6c20746869732066756e6374696f6e2e4f6e6c79205374616b65686f6c646572732063616e206d616b65207061796d656e7473a26469706673582212201f13e45f500cbdb0948272f19c995d97b224fa7b4632ec702c88b63ddbdd838f64736f6c63430008110033",
  "immutableReferences": {},
  "source": "// SPDX-License-Identifier: MIT\npragma solidity ^0.8.0;\n\nimport \"@openzeppelin/contracts/access/AccessControl.sol\";\nimport \"@openzeppelin/contracts/security/ReentrancyGuard.sol\";\n\ncontract FundingDAO is ReentrancyGuard, AccessControl {\n    struct Proposal {\n        uint256 id;\n        uint256 amount;\n        uint256 livePeriod;\n        uint256 voteInFavor;\n        uint256 voteAgainst;\n        string title;\n        string desc;\n        bool isCompleted;\n        bool paid;\n        bool isPaid;\n        address payable receiverAddress;\n        address proposer;\n        uint256 totalFundRaised;\n        Funding[] funders;\n        string imageId;\n    }\n\n    struct Funding {\n        address payer;\n        uint256 amount;\n        uint256 timestamp;\n    }\n\n    mapping(uint256 => Proposal) private proposals;\n    mapping(address => uint256) private stakeholders;\n    mapping(address => uint256) private members;\n    mapping(address => uint256[]) private votes;\n\n    bytes32 public constant MEMBER = keccak256(\"MEMBER\");\n    bytes32 public constant STAKEHOLDER = keccak256(\"STAKEHOLDER\");\n\n    uint32 constant votingPeriod = 3 minutes;\n    uint256 public proposalsCount = 0;\n\n    event NewMember(address indexed fromAddress, uint256 amount);\n    event NewProposal(address indexed proposer, uint256 amount);\n    event Payment(\n        address indexed stakeholder,\n        address indexed projectAddress,\n        uint256 amount\n    );\n\n    modifier onlyMember(string memory message) {\n        require(hasRole(MEMBER, msg.sender), message);\n        _;\n    }\n\n    modifier onlyStakeholder(string memory message) {\n        require(hasRole(STAKEHOLDER, msg.sender), message);\n        _;\n    }\n\n    function createProposal(\n        string calldata title,\n        string calldata desc,\n        address receiverAddress,\n        uint256 amount,\n        string calldata imageId\n    ) public payable onlyMember(\"Only members can create new proposal.\") {\n        require(\n            msg.value == 5 * 10**18,\n            \"You need to add 5 MATIC to create a proposal\"\n        );\n        uint256 proposalId = proposalsCount;\n        Proposal storage proposal = proposals[proposalId];\n        proposal.id = proposalId;\n        proposal.desc = desc;\n        proposal.title = title;\n        proposal.receiverAddress = payable(receiverAddress);\n        proposal.proposer = payable(msg.sender);\n        proposal.amount = amount;\n        proposal.livePeriod = block.timestamp + votingPeriod;\n        proposal.isPaid = false;\n        proposal.isCompleted = false;\n        proposal.imageId = imageId;\n        proposalsCount++;\n        emit NewProposal(msg.sender, amount);\n    }\n\n    function getAllProposals() public view returns (Proposal[] memory) {\n        Proposal[] memory tempProposals = new Proposal[](proposalsCount);\n        for (uint256 index = 0; index < proposalsCount; index++) {\n            tempProposals[index] = proposals[index];\n        }\n        return tempProposals;\n    }\n\n    function getProposal(uint256 proposalId)\n        public\n        view\n        returns (Proposal memory)\n    {\n        return proposals[proposalId];\n    }\n\n    function getVotes()\n        public\n        view\n        onlyStakeholder(\"Only Stakeholder can call this function.\")\n        returns (uint256[] memory)\n    {\n        return votes[msg.sender];\n    }\n\n    function getStakeholderBal()\n        public\n        view\n        onlyStakeholder(\"Only Stakeholder can call this function.\")\n        returns (uint256)\n    {\n        return stakeholders[msg.sender];\n    }\n\n    function getMemberBal()\n        public\n        view\n        onlyMember(\"Only Members can call this function.\")\n        returns (uint256)\n    {\n        return members[msg.sender];\n    }\n\n    function isStakeholder() public view returns (bool) {\n        return stakeholders[msg.sender] > 0;\n    }\n\n    function isMember() public view returns (bool) {\n        return members[msg.sender] > 0;\n    }\n\n    function vote(uint256 proposalId, bool inFavour)\n        public\n        onlyStakeholder(\"Only Stakeholders can vote on a proposal.\")\n    {\n        Proposal storage proposal = proposals[proposalId];\n\n        if (proposal.isCompleted || proposal.livePeriod <= block.timestamp) {\n            proposal.isCompleted = true;\n            revert(\"Time period of this proposal is ended.\");\n        }\n        for (uint256 i = 0; i < votes[msg.sender].length; i++) {\n            if (proposal.id == votes[msg.sender][i])\n                revert(\"You can only vote once.\");\n        }\n\n        if (inFavour) proposal.voteInFavor++;\n        else proposal.voteAgainst++;\n\n        votes[msg.sender].push(proposalId);\n    }\n\n    function provideFunds(uint256 proposalId, uint256 fundAmount)\n        public\n        payable\n        onlyStakeholder(\"Only Stakeholders can make payments\")\n    {\n        Proposal storage proposal = proposals[proposalId];\n\n        if (proposal.isPaid) revert(\"Required funds are provided.\");\n        if (proposal.voteInFavor <= proposal.voteAgainst)\n            revert(\"This proposal is not selected for funding.\");\n        if (proposal.totalFundRaised >= proposal.amount)\n            revert(\"Required funds are provided.\");\n        proposal.totalFundRaised += fundAmount;\n        proposal.funders.push(Funding(msg.sender, fundAmount, block.timestamp));\n        if (proposal.totalFundRaised >= proposal.amount) {\n            proposal.isCompleted = true;\n        }\n    }\n\n    function releaseFunding(uint256 proposalId)\n        public\n        payable\n        onlyStakeholder(\"Only Stakeholders are allowed to release funds\")\n    {\n        Proposal storage proposal = proposals[proposalId];\n\n        if (proposal.totalFundRaised <= proposal.amount) {\n            revert(\"Required funds are not met. Please provider funds.\");\n        }\n        proposal.receiverAddress.transfer(proposal.totalFundRaised);\n        proposal.isPaid = true;\n        proposal.isCompleted = true;\n    }\n\n    function createStakeholder() public payable {\n        uint256 amount = msg.value;\n        if (!hasRole(STAKEHOLDER, msg.sender)) {\n            uint256 total = members[msg.sender] + amount;\n            if (total >= 2 ether) {\n                _setupRole(STAKEHOLDER, msg.sender);\n                _setupRole(MEMBER, msg.sender);\n                stakeholders[msg.sender] = total;\n                members[msg.sender] += amount;\n            } else {\n                _setupRole(MEMBER, msg.sender);\n                members[msg.sender] += amount;\n            }\n        } else {\n            members[msg.sender] += amount;\n            stakeholders[msg.sender] += amount;\n        }\n    }\n}\n",
  "sourcePath": "/Users/fvera/Desktop/daoBrickin/testing1/Funding-DAO/contracts/FundingDao.sol",
  "compiler": {
    "name": "solc",
    "version": "0.8.17+commit.8df45f5f.Emscripten.clang"
  },
  "schemaVersion": "3.4.11",
  "updatedAt": "2023-01-15T04:36:42.939Z",
  "networkType": "ethereum",
  "devdoc": {
    "kind": "dev",
    "methods": {
      "getRoleAdmin(bytes32)": {
        "details": "Returns the admin role that controls `role`. See {grantRole} and {revokeRole}. To change a role's admin, use {_setRoleAdmin}."
      },
      "grantRole(bytes32,address)": {
        "details": "Grants `role` to `account`. If `account` had not been already granted `role`, emits a {RoleGranted} event. Requirements: - the caller must have ``role``'s admin role."
      },
      "hasRole(bytes32,address)": {
        "details": "Returns `true` if `account` has been granted `role`."
      },
      "renounceRole(bytes32,address)": {
        "details": "Revokes `role` from the calling account. Roles are often managed via {grantRole} and {revokeRole}: this function's purpose is to provide a mechanism for accounts to lose their privileges if they are compromised (such as when a trusted device is misplaced). If the calling account had been revoked `role`, emits a {RoleRevoked} event. Requirements: - the caller must be `account`."
      },
      "revokeRole(bytes32,address)": {
        "details": "Revokes `role` from `account`. If `account` had been granted `role`, emits a {RoleRevoked} event. Requirements: - the caller must have ``role``'s admin role."
      },
      "supportsInterface(bytes4)": {
        "details": "See {IERC165-supportsInterface}."
      }
    },
    "version": 1
  },
  "userdoc": {
    "kind": "user",
    "methods": {},
    "version": 1
  }
}